:020000040800F2
:1000000000500020A1980108559901089DB80008EA
:1000100055990108559901085599010800000000FB
:1000200000000000000000000000000055990108D9
:10003000559901080000000055990108E15A01088E
:1000400055990108559901085599010855990108D4
:1000500055990108559901080FAC000819AC000822
:1000600017AC000815AC000813AC0008718E00082E
:10007000618E0008518E0008418E00082D8E000808
:10008000198E0008078E0008559901085599010836
:1000900055990108559901085599010811AC0008B6
:1000A00055990108B1FD000855990108A1FD000806
:1000B00095FD000885FD000875FD000855990108AB
:1000C0005599010855990108559901085599010854
:1000D00055990108F18B0008E98B00085599010832
:1000E0000DAC000855990108559901080000000061
:1000F0000000000000000000000000000000000000
:0C01000000000000000000005FF808F1A3
:100110002DE9F04FA34ADFF8DC82A34BA34C002566
:1001200088F80050DA60A369A1B043F00103A3612D
:10013000626A9F4B20AE1A60636A9E4F43F08073E1
:100140006362A369384643F01C03A3614FF6FF7353
:1001500026F82C3D31468DF8565008F019FE3146F0
:10016000954808F015FE3146944808F011FE10231A
:100170008DF8563002238DF857304FF4007338460F
:10018000ADF8543031463B6108F002FE8C4A8D4E8A
:100190005368474643F000735360C6F8A451C6F84D
:1001A000A85108F0E5FC33462846DFF81CC24FF0A2
:1001B0000108810201F180413CF810E0824D01F517
:1001C000843100224EFA02F919F0010F18BF08FA23
:1001D00002F902F101021EBF1960A3F804900C336A
:1001E000102AEFD101300328E3D1784A7849136807
:1001F00091468B4201D1012203E0764A934202D11B
:100200000222754B1A70754B1B787E2B04D014F0AC
:1002100077FA12F0E5FF03E00AF027FE0028F6D097
:1002200014F03EF86E4A00239046089309930A930F
:100230004FF4E0130B932368117A43F48033236067
:10024000A36943F01003A361236803F40033099307
:10025000089B01330893099B1BB9089BB3F5A06F5A
:10026000F2D12368514813F4003301D0022315E082
:10027000026842F0010202600893236803F002035F
:100280000993089B01330893099B1BB9089BB3F59D
:10029000A06FF2D123689B073BD501230A93514BF2
:1002A0001A6842F010021A601A6822F003021A60FB
:1002B0001A6842F002021A6063684B4A636063681E
:1002C0006360636843F480636360136823F0704382
:1002D00013603F4BC9F80030636823F47C136360FC
:1002E000136843F000431360344BDA6822F4004291
:1002F000DA609B68180445BF344B364A4FF4E0136C
:100300001A6048BF4FF480130B930A9B012B01D155
:1003100017E0FEE7022B18D169B10B9BB3F5801FE4
:1003200002D14FF4002305E00B9BB3F5E01F02D18F
:100330004FF480130B930B9A6368134343F4803399
:1003400002E0636843F460136360236843F08073E2
:1003500023602268154B9201FBD55A6822F00302F4
:100360005A605A6842F002025A6063680F4903F00B
:100370000C03082BF9D14B681C4A03F00C03042B27
:1003800003D0082B04D0124B3EE0D9F800303BE0FC
:100390004B684868C3F38343C00303F102032BD4C3
:1003A000134930E00005FA0500ED00E000100240BE
:1003B000943C002000080140000C01400010014066
:1003C00000000140F0050020ACAB01080003002054
:1003D00000127A00001BB700A810002000F80108E6
:1003E000B010002000200240041001400000002056
:1003F00000093D00121C0020496811F4003FD9F8A3
:10040000001018BF49084B4313606368DFF80C9273
:10041000C3F303132B44997913684FF0170ACB40A9
:10042000136008F0A5FB98F807206E4B0021DA71E5
:10043000DA733B78084643F001033B7098F80630C6
:10044000694F86F8AC31694B4FF0020B1B683B607B
:100450000AF0C5FB002101200AF0C1FB002359F876
:10046000230003F1010840B180F806A080F807B02E
:1004700080F8088012210AF077F94346032BEED169
:10048000002108460AF0ABFB002101200AF0A7FB7F
:10049000A369002143F00103A361402254481AF0EC
:1004A00006FB544B4FF0FF321A604FF4FA70C3F85A
:1004B000032015F00AFBA02200214F481AF0F7FA9A
:1004C000DFF85C81002454F8080000234B49DA006F
:1004D00001F1240E5EF833E0704503D18B1893F8D8
:1004E000280003E00133042BF0D100200C3417F076
:1004F000D7FFA82CE7D14FF0040900213022404853
:100500003C6886F850921AF0D2FA00231846DFF8B9
:1005100014E1DFF8ECC0494604F040084FF0FF0951
:100520001EF9012F03EB0C0A03F80C20B8F1000FA1
:1005300009D11E3AD2B2012A9FBF01F1FF318AF8D8
:100540000090C9B201200C33302BE9D108B186F8F4
:100550005012DFF8D49099F80080404608F01CFE55
:100560004FEAC80E05EB0E0292F84510254B92F8A3
:1005700046201970244B4D461A70837A13B9C4F380
:10058000401100E0012186F851122BB91F4B234086
:10059000003318BF012300E0012340F2DC50C6F80D
:1005A00054321B4B002223F812000132082AFAD1E0
:1005B00029B9A8F11708B8F1020F42D836E00F4B5D
:1005C0001449734493F844200A70996C0029F0D0C0
:1005D000114800239342ECDA51F8234040F82340BD
:1005E0000133F7E7380300202C2F002000120020F1
:1005F0002C1C00206C1C0020A0070020ACAB0108C4
:10060000E0210020F1220020F22200202000100032
:100610001C110020F0220020F3220020C4AB0108AE
:1006200098CA0108B7C50108601900200EF04EFAFB
:10063000A74B1B782BB1A74B0122C3F8542283F898
:100640005122A54EDFF8BC920024B6F90880B6F915
:10065000060009EB040AC8EB000018F0B7FC9F493C
:1006600018F0BCFD49F80400B6F904000834C0EBEA
:10067000080018F0ABFC994918F0B0FD402CCAF8FE
:10068000040006F10C06E0D108F09AFD20220021BA
:100690000DA81AF00CFA287808F07EFD00B1007A57
:1006A0008F4A0D90002302EBC30191F9021001293A
:1006B00000F089860133042BF5D100238DF83E30FC
:1006C0003B68C3F340028DF84120C3F380128DF8DC
:1006D0004320C3F340328DF83920C3F3C0328DF884
:1006E0003C2013F4006204D07E4A927A561E724275
:1006F00072418DF83D20C3F300428DF84420754CC3
:1007000003F001028DF83A20C3F3C0028DF83B20BC
:1007100094F85122003218BF01228DF84520C3F30E
:1007200000528DF84620704A11885288ADF84A1060
:100730006E49ADF848200A7A501E02288CBF00206E
:100740000120DD0448BF6A4B8DF8420048BF9B88FA
:10075000C88889888DF84C20ADF8501048BFADF896
:100760005030042AADF84E0008D100254FF48050D7
:100770008DF842500AF0D8FAADF850503B68782214
:10078000C3F300738DF838305A4B00219B7A5A48D6
:1007900084F898321AF08BF9584D4E4C4FF00009FE
:1007A0009DF83E30EE1F2BB115F8033C123B012B98
:1007B00040F2C081162013F022FD9DF84380B8F16D
:1007C000000F06D028B1026855F8073C9A4200F0A5
:1007D000B181202013F013FDB8F1000F06D028B12D
:1007E000026855F8073C9A4200F0A4819DF83B301E
:1007F00073B99DF839301BB1D5F80130980709D489
:100800009DF83A303BB1D5F8013003F0010302E026
:10081000002300E002230D9AA2B99DF8452022B1E1
:10082000D5F80120110700F157819DF8462022B12B
:10083000D5F80120D20600F14F81D5F8012012F041
:10084000040F09E0013A012A08D8D5F80120500622
:1008500000F1428112F0200F40F0E380002B00F005
:100860006981012B40F08E800023FF229DF84C10FF
:1008700084F81433C4F81833C4F81C33C4F8203394
:10088000C4F8643384F8682384F8692384F86A33ED
:1008900084F86B3384F86C33194A1A44926812F066
:1008A000240F05D0164AD05855F8072C904203D093
:1008B0000C33A82BF0D12AE04B1E032B27D8DFE8FE
:1008C00003F00223042308221FE048221DE000BF9A
:1008D000F0220020F0050020742300200000FA43DD
:1008E000BE210020A62F0020081200204A19002057
:1008F00044190020B01000208C0800209FCA010875
:1009000098CA0108480800201822C74B1A714FF0F6
:10091000000815F8030C84F87083C4F87C6309F0B0
:10092000FDFE4FF0010A0222827180F807A080F8D4
:100930000880297809F018FF5246414630460FF0EA
:10094000FBFABA4BBA4AC4F88033BA4B111FC4F849
:1009500084333046C4F888830FF02CFA424615F8E9
:10096000021C55F8070C09F06BFE94F89E32202209
:1009700004EBC30383F8A52294F8A032534484F80F
:10098000A032D2E05FFA89F34FF01C0B0BFB03F2AD
:100990004FF0000A04EB02084FF0010B15F8030CAE
:1009A00088F8713388F872A388F87AA388F870B34E
:1009B000C8F87C630392049309F0B0FE049B80F8AE
:1009C00006B05B44037280F807B0297809F0CCFECA
:1009D0005A46514630460FF0AFFA974B9749C8F840
:1009E0008033974B3046C8F88433039BC8F888A3FC
:1009F00019440A1D0FF0DEF9524615F8021C55F88D
:100A0000070C09F01DFE94F89E32402204EBC3034C
:100A100083F8A52294F89F32D9445B4484F89F322E
:100A200083E094F89DB2BBF1050F00F283809DF83E
:100A30004CA0BDF84EE00AF1FF31BDF850309DF8F2
:100A40003800032910D8DFE801F013070B02DFF8A4
:100A50001082182100230EE0DFF8088218210AE036
:100A6000DFF80482482106E0DFF80082012102E07D
:100A7000DFF8FC810821734A00904A43B2FBFEF282
:100A8000304692B209F0DBFE6F4B43F82B009DF825
:100A90004230C0F80C802BB194F89E32192204EB3E
:100AA000C30308E094F89E32BAF1040F04EBC303C9
:100AB0000CBF0D22092283F8A52294F89E3294F8E7
:100AC0009D22013304EBC30383F89C220132C3F857
:100AD000A06284F89D2228E094F89C82B8F1070F68
:100AE00028D8BDF848205749BDF84A3091FBF2F2AA
:100AF0009DF8381092B200913046012109F09FFE16
:100B000094F89E320A22013304EBC30383F89D223A
:100B100094F89C2204EB880883F89C220132C8F8E0
:100B20005004C3F8A06284F89C2294F89E320133EA
:100B300084F89E32454B0C35AB427FF431AE444BCA
:100B4000444D1E7800243046173E2C7008F024FBDC
:100B5000022E1BD8DFF81C8108F16009002154F82F
:100B6000080018F01BFC18B13B68D90435D429E003
:100B700004EB090604EB08030FCB86E80F002B7883
:100B800010340133602C2B70E8D1EDE7324B90F834
:100B900009C093F89D22D0F80480944528BF94465C
:100BA00085F800C0B8F1000FDED003F59A66644501
:100BB000DADA230103EB060E43440FCB01348EE84F
:100BC0000F00F4E708F0D2FA9DF84230224D002BD6
:100BD00052D1012385F830354EE02D78012DF1D921
:100BE0001E4B03F1080403EB051303F11805103441
:100BF000A542E7D04FF07C5154F8100C18F03AFAA7
:100C00004FF07C5144F8100C54F8140C18F032FAE0
:100C10004FF07C5144F8140C54F80C0C18F02AFADC
:100C200044F80C0CE3E700BF0000002071A30008AB
:100C300074090020CDA400087DA6000870090020DA
:100C400049A3000840420F002019002047CB0108AB
:100C500060190020E8250020F0050020C00A0020CF
:100C600015A500086DA5000839A5000805A5000810
:100C700099A50008600A0020564A574E13781C2098
:100C800043F0040313703378012B8BBF0127002737
:100C90000024012409F042FD85F83875C5F83405B3
:100CA00058B1112282710222C27100229442027252
:100CB0000CBF1221162109F057FD002014F028FF67
:100CC000222009F02BFD04461523837100270223FF
:100CD000C3710772122109F047FD20463F4C394687
:100CE00009F073FF207E17F0DBFB237E012203F067
:100CF0001F015B09022B02FA01F206D0032B08D177
:100D000037490B691A430A6103E03549CB681A4336
:100D1000CA60607D09F002FD0C270B234FF002082A
:100D2000C371877180F80880E07D09F0F7FC0D231E
:100D3000C371877180F80880A07D09F0EFFC87718E
:100D4000C77180F80880607D09F0E8FC1B2109F07C
:100D50000BFDE07D09F0E2FC072109F005FDA07D17
:100D600009F0DCFC1B2109F0FFFC207D20B109F01B
:100D7000D5FC132109F0F8FC21691A4B99420AD1DC
:100D800003F56043DA6842F48052DA60DA6822F4EC
:100D90008052DA6019E0144B994209D103F5EC3323
:100DA0001A6942F480421A611A6922F480420BE007
:100DB0000E4B994209D103F5EA331A6942F4004215
:100DC0001A611A6922F400421A61237F83B1002359
:100DD00018460FE0121C0020A8100020E00200209E
:100DE000001002400030014000380040003C00404C
:100DF000012302200A8802F4415242F4457213434F
:100E000003430B808B8B207D23F400631B041B0C9E
:100E10008B8307230B820B889BB243F040030B802C
:100E200018B109F07BFC09F0CBFE2C2009F076FC10
:100E300080469F23C5F83C058DF8303032200023D2
:100E40008DF831308DF832308DF8333014F03DFEAE
:100E5000404609F0EFFC04220CA915A80BF0F6FAA5
:100E6000404609F0ADFE9DF856309DF855201B0216
:100E700043EA02439DF857201343AF4A93421AD0E6
:100E8000322014F022FE404609F0D4FCF5200BF08D
:100E900019FBFF200BF016FB8DF85400404609F0BB
:100EA0008FFE9DF85430702B05D13378022B02BF92
:100EB000A24B03221A70012007F0E2FFA04A002390
:100EC00007931368039213F0020F1CBF95F8402597
:100ED0008DF81C201A0444BF95F841258DF81D207B
:100EE0001B0507D5974B9B7A012B04BF95F842351C
:100EF0008DF81E301E220021934819F0D8FD0023E2
:100F00001C46924A07A9595C481E032894BF42F820
:100F1000231042F823400133042B8C48F2D10023E4
:100F200050F82320012A00F056820133042BF7D118
:100F3000002350F82320022A00F052820133042BB0
:100F4000F7D1002350F82320032A00F04E8201330A
:100F5000042BF7D1002319467C4A50F82340042C77
:100F600008BF42F823100133042BF6D1764CDFF88A
:100F7000ECA125460F260027A87978B309F0CEFB0F
:100F80004FF00009062395F907B08371C67180F808
:100F90000890A87909F0C2FB494609F0E5FB4946EB
:100FA000AA796B484B0010F81100904204D1694AAD
:100FB000134493F8153103E001310A29F1D10023DC
:100FC0002B72142303FB0BA39A69511C6A7207222C
:100FD000EA7201229961AA721A7517440136F6B2B3
:100FE000132E05F10605C7D1002F00F0E7805A4AFD
:100FF0005A4F536843F4404353603B7D002B00F04D
:10100000DD80387B17F04CFA787B17F049FAD7F877
:101010001090534E484613F075FFBD68BF6900231A
:10102000022F179319931F9305F14C031593B4BF27
:10103000002380231A934FF480731B934FF4806333
:101040001C9320231D9315A94FF400534846169670
:1010500018971E9313F038FFD9F80030012F43F092
:101060000103C9F800306B68D8BF002223F4702355
:10107000C8BF012223F4807343EA02236B60AA688D
:10108000384B183E134043F4602343F00203AB6037
:10109000EB6A4FF0070E23F470027B1EDBB242EACC
:1010A0000353EB621F270123A27A002A69D094F927
:1010B0000720002A65D194F808C0581CBCF1090F1C
:1010C000C0B294F80B900DD9ACF10A0AEA680AEBA9
:1010D0004A0A0EFA0AF122EA010109FA0AF20A435F
:1010E000EA600AE029690CEB4C020EFA02FA21EAE6
:1010F0000A0109FA02F20A432A61062B0CD8591E8A
:101100006A6B01EB810107FA01F322EA03020CFA90
:1011100001F11143696333E00C2B25D8DA1F296BE9
:1011200002EB820207FA02F321EA03030CFA02F24D
:101130001A432A6324E000BF15202000A8100020D5
:101140002C2F0020A62F0020340B0020540B002051
:10115000C0AC0108ACAB0108001002400000002048
:10116000640B0020FDF7F1FF0D3BEA6A03EB8301FE
:1011700007FA01F322EA03020CFA01F31343EB62CC
:1011800003460634B4428FD1AB6843F48073AB603E
:10119000AB6843F00103AB60AB6843F00803AB609E
:1011A000AB681F07FCD4AB6843F00403AB60AB68CB
:1011B0005E07FCD4AB6843F4A003AB608D4B1968A9
:1011C00011F080541BD10121084609F008FD214689
:1011D000204609F004FD0524012009F091FA0020C1
:1011E00009F08EFA642014F070FC013CF4D1214621
:1011F000204609F0F4FC2146012009F0F0FC14F02F
:1012000039F8039B00211B687B481C0644BF7B4ABE
:101210007B4B7C4C48BF1A60102219F048FC00251B
:101220002320A56114F051FC20AB03F8665D012278
:10123000752104F1180007F033FB002868D0724BC9
:101240000122A363714B2946E363432384F84430AE
:1012500004F118000DF11B0307F022FB9DF81B3071
:1012600003F07E038DF81B3040B1682B06D10123BB
:1012700084F831301D2384F8443049E09DF81A3059
:1012800003F07E03682B8DF81A303CD15D4E0622A8
:10129000022384F83130114615ABA56B06F1180016
:1012A000A8479DF859209DF8573092005B0003F045
:1012B000020302F004021A439DF8553003F00103C3
:1012C000134311D0012B01D1002302E0022B03D1E3
:1012D000012384F832301BE003F00303032BF7D023
:1012E00003200EF061FE13E00CABB56B01220C2164
:1012F00006F11800A8479DF8303013F00F03EFD027
:10130000042BE5D1E0E7702B04BF042384F83130CF
:101310003F4B3C4F6363002384F8303094F8313006
:10132000022B40F078863B4A3B4D3A603B4A3C4EAC
:101330007A603C4A0120FA603B4A3370FA6187F8D0
:10134000300008F0C9FEAB79EA7887F82C3052B14A
:10135000AA78002B14BF4FF47A737D23511E84F8B2
:101360002E10534302E0AB8887F82E20DFF88890D8
:10137000244FC9F800303846236898472B780BB1C2
:1013800087F83030294B2A4FC7F88035EB79002B8E
:1013900056D0284B4FF0000AC7F8803507F2845B1F
:1013A0001C2303FB0AB0244AE97942F82A00D9F841
:1013B00000200AF1010A04930BF01CFBBAF1030FA1
:1013C000049BEED13CE01D4A32F83330003318BFA5
:1013D0000123FFF773B9164B212283F84A25A7E5AD
:1013E000134B142283F85025ABE5114B112283F8DF
:1013F0005625AFE5943C00204C240020DB11002052
:10140000983C0020D4100020A1880008F385000833
:10141000D4AC0108A78800086011002007840008E8
:10142000402F0020EF83000890C1793D7D01010825
:10143000F005002025010108C80B0020BE21002076
:10144000DFF80CB3382200215846D9F8005019F0C3
:101450002EFBA369DFF8FCE20BF1180CCBF8083087
:101460009EE80F008CE80F003EF8073CA249ABF85D
:1014700016304B78A14A012B53700491924640F0EC
:10148000C1859BF81600DFF8C892022826D19C4B34
:10149000ADB2C9F800309B4BC9F8043099F8173049
:1014A000002B14BF6E236F238BF8143001238BF8AD
:1014B00015300323737008F00FFE4FF48073ABF800
:1014C0000C304846DBF800309847CBF8285013F032
:1014D000B3FF049B1B780BB189F815308A4A137847
:1014E00091468AF80230013B012B00F2A58097F863
:1014F000E435002B40F09485142014F0E6FA4FF008
:10150000050B0CAB0122D021772012F025FE00281C
:1015100000F08E809DF830300322552B7B4D87F8EC
:10152000FF35A7F8082640F083800CAB0122D121BB
:10153000772012F011FE9DF83030AA2103F00F023F
:101540001B0985F8002685F80136162215AB772091
:1015500012F002FE9DF854209DF8553043EA022314
:10156000A5F8E8359DF856209DF8573043EA022348
:10157000A5F8EA359DF858209DF8593043EA022332
:10158000A5F8EC359DF85A209DF85B3043EA02231C
:10159000A5F8EE359DF85C209DF85D3043EA022306
:1015A000A5F8F0359DF85E209DF85F3043EA0223F0
:1015B000A5F8F2359DF860209DF8613043EA0223DA
:1015C000A5F8F4359DF862209DF8633043EA0223C4
:1015D000A5F8F6359DF864209DF8653043EA0223AE
:1015E000A5F8F8359DF866209DF8673043EA022398
:1015F000A5F8FA359DF868209DF8693043EA022382
:1016000041F27072A5F8FC35414B1A8046F678120B
:101610005A80404A5A60404A9A60404ADA60404ADA
:101620001A61404A5A61012385F8E43500F0F8BC9C
:10163000BBF1010B7FF465AF3B4A136823F0040351
:1016400013603A4B00223A4D5A61A26995F803B0F3
:101650009A6000228AF803B01A731C46BBF1000F8F
:1016600044D0BBF1020F02D9BBF1040F22E0314B91
:101670004FF0050AC7F80C36174615AB01220A21B0
:101680001E208DF8547012F067FD58B19DF854304B
:10169000482B07D1284B2360284B63600323237317
:1016A000022359E00A2014F010FABAF1010AE4D139
:1016B000BBF1010F1AD1039B1B68180616D5204BEE
:1016C000204A1B6819780C234B43D118897869B1DB
:1016D000D35C012B05D01C4B23601C4B636004239F
:1016E0003AE002200DF0CCF80028F4D10E4A13683D
:1016F00023F00803136063E0EC2F00204803002070
:10170000D78300084B84000812120020F005002047
:101710002C110020E985000879880008CF85000891
:1017200035880008DF820008282F0020482F00207D
:10173000E2110020D5AC010879860008F98500087F
:10174000983C0020C4CC0108ED330108D5330108D2
:10175000B42F00200C1100200820F370244F08F053
:10176000BBFC0121084609F03AFA2368384698473D
:1017700082460021012009F032FABAF1000F00F090
:101780005684B5F90000642390FBF3FA03FB1A00BA
:1017900000B217F01BFC174917F06CFC834650464B
:1017A00017F014FC0146584617F05CFB124917F07D
:1017B00061FC124B012278611A70AB7803B123737C
:1017C000049B5B78012B05BF71780D4A0023517093
:1017D00099F80020012A01BF0A4BB178197013460D
:1017E000EA78012A12D1F278074BDA700FE000BFD5
:1017F000482F00208988883C00002041903C002030
:10180000EC2F002012120020E21100200BB111F089
:10181000E7FCA14D01212B78084643F002032B7011
:1018200009F0DDF90021084609F0D9F904959B4D2E
:101830000A24012008F064FF002008F061FF19204D
:1018400014F043F96B68990302D4012014F060F995
:10185000192014F03AF9013C002014F059F914F061
:10186000FF04E6D12146204609F0B9F921460120BE
:1018700009F0B5F98A4B8B4E187C17F0A7FB8A4903
:1018800017F0F8FB0FF06AF9884B4FF0000A186068
:10189000874BC3F800A0C3F804A0C3F808A007F062
:1018A0003FFD2022FF21304619F001F98149824B8A
:1018B0000D680122347015F002041A708946304612
:1018C00006D072700222B27004221A701A22F270CC
:1018D000039A11684A0204D41A78561C1E70142602
:1018E00086541A78042602F1010E5FFA8EFE8654A1
:1018F00015F00A0683F800E06A4F0FD04FF0050C90
:1019000007F80EC0DFF8B0E102F1030C02328EF8E6
:1019100000C0D2B24FF0060E07F802E08F0604D5E1
:101920001A78571C1F700727875415F0040F634D52
:1019300004D12A68D2060AD50F0608D51A780327DB
:101940008754971C01321F70D2B21827875411F0A8
:10195000800701D00A2E04D02A68D20616D5ACB171
:10196000A7B11A7809248454541CE4B208260655F9
:10197000941CE4B213260655D41CE4B21526065571
:10198000541D04321C70D2B2162484542D68EE0605
:101990000CD51A780A248454541CE4B20E26065539
:1019A000D41C02321C70D2B21B2484546D0604D5A0
:1019B0001A78541C1C70192484541A780B248454EB
:1019C000541CE4B2951C0F26EDB206554C051D7053
:1019D00008D53B4C247A2CB1374C03322270314A63
:1019E000102454550F0304D51A78511C1970112175
:1019F00081541A7817218154911C01321970D2B286
:101A00001223835400214FF422722E4819F04FF80C
:101A100013F090FE2C4A00232C4C138093702C4A18
:101A20002C4EC4F814262C4A2C4D2D48D28A6E60B8
:101A300003962C4F2C4EA860059084F8103611B2F6
:101A400004F5C360D6F800E027F813100EF5967E73
:101A500040F823E00133122BF4D1244F3868C60438
:101A60005CBF1D4BB3F91C101E4B1E46D98020498C
:101A700001F1500C11F8023C002B4AD10B7891F87F
:101A800001E0734545D2ABB3013B03EB830303EBAA
:101A9000830303F5617335E0121C00209C220020B3
:101AA000D8190020BA11002035FA8E3C041A002003
:101AB000CC190020282F0020DA110020A4220020B9
:101AC000DC1B0020FC300020C0300020F00500208E
:101AD000A0860100094E010888300020D423002090
:101AE000054E0108E0230020BC3000202C2F0020F0
:101AF0001A1A00200EF1010E0EEB8E0E0EEB8E0E5A
:101B00000EF5617311F801EC9BB20EF1040E26F88C
:101B10001E3004318C45ADD1030748D5B84E337A19
:101B2000B346022B3CD10A23120192FBF3F2B549D2
:101B3000A2F5B062002341F823200133122BFAD121
:101B40002B7042F6F8236B80AF4B40206B60AF4B9D
:101B5000AB600CF095FE064610B30FF05DF8002860
:101B60000CBF0122032296F902E006469BF80930D9
:101B70007046002BA24B08BF06219B7A18BF072195
:101B8000002B0CBF002308230B438DE80C004021E1
:101B90009F4BA04A13F080FD0EB1C4F8600630B927
:101BA000082009F0C1F8039B6B60059BAB609A4B62
:101BB0001A6842F2010313407BB144F62061960497
:101BC000964B698003D508211970954904E0D50723
:101BD00003D51021197093495960100658D5924DBC
:101BE000924B00266B60924B6E742B60914B5E6043
:101BF0009E6011F037FC904B30461B68EE742B62F0
:101C000011F07EFC2B681A780C2353438B4AD35C6B
:101C1000022B03D1012011F073FC39E0012B37D1E5
:101C200002200CF02DFE18B9802009F07DF82FE07D
:101C30006B7C0279DFF808E20EEB030191F82A11C0
:101C4000914207D00133DBB2042B4FF00106F3D9E8
:101C5000002300E006B16B746B7C794A90F90200B6
:101C600013440022019293F82A612B684FF00C0E66
:101C70001978724B0EFB01335B7802210093714B94
:101C800053F8263013F008FDA8600028C2D1CBE736
:101C90006D4B01221A7000225A709A70DA701A7114
:101CA000DA711A725A729A725A7483F87D2483F820
:101CB000902483F87C24654AC3F828A1C3F8242122
:101CC000C3F82C21C3F89CA410F0E2FD524B1A6813
:101CD0009A4612F4806F17D004200CF0D1FD042135
:101CE000C4F8640613F07EFD84F8680610200CF03A
:101CF000C7FD1021C4F86C0613F074FD84F870065B
:101D00000FF0E8F80FF046F8514B524D1B78022BBC
:101D100040F0C6802E88002E40F0C2800F2388F845
:101D200006300E23132188F80730404688F80860F3
:101D3000C4F8748608F018FD404608F041FF464A92
:101D40003220138823F040031B041B0C13801388DC
:101D500023F038031B041B0C138013889BB243F041
:101D6000400313809F238DF830308DF831608DF85B
:101D700032608DF8336013F0A8FE40468DF8556050
:101D800008F058FD04220CA915A80AF05FFB404694
:101D900008F016FF9DF856309DF855201B0243EAC7
:101DA00002439DF8572013432C4A934265D014DC1C
:101DB000A2F591226FF400710A44934258D003DCDB
:101DC000274A934219D066E0264A934215D002F57D
:101DD0001A42023293424BD05DE0234A934247D0ED
:101DE00004DC013A934256D1402342E01F4A934219
:101DF0003ED00132934240D04DE0202339E000BF75
:101E0000883000209C2E0020794C0108A94C010844
:101E1000A0860100494E01082C2F0020D423002069
:101E2000394E0108274E0108983C0020BE210020B1
:101E3000DB110020302F0020BC300020C4CC010872
:101E4000ACAB010858CC0108741C0020000080BF16
:101E5000A8100020240000200038004018BA2000FC
:101E600015400100152020001720C2001740EF0088
:101E700080232B804FF4807302E04FF480732B801B
:101E80006B80AB882A881B02AB605343EB60012355
:101E900084F8783604E000232B806B80AB60EB6025
:101EA000EE682EB3F60AB0464FF0000B15ABB34503
:101EB0000BDA0BEB06056D1019461022E8020393AE
:101EC0000CF072FC0F28039B06DC0CF01FFC5B4B34
:101ED0004FEAC8221A600BE0002253F822100131A9
:101EE00040F095800132042AF7D12E46A846DEE75D
:101EF000DAF80010524B11F4002218BF01221A70B8
:101F0000504B5B78202B01D8202308E0402B01D8D0
:101F1000402304E0802B94BF80234FF48073C4F8E7
:101F20007C36494B4FF47A72A3F84820474B1A6825
:101F3000474B1A60474A0023137040F602020A40DA
:101F40004AB1454A03211170444A01211170444AA3
:101F50001380444A1380444B01251B6800212C2226
:101F600042483B6084F8305518F0A1FD0023C4F8C6
:101F700080363F4C3F4A2046136013F075FA3E4BC3
:101F800029461B682846642BB8BF6423636413F09A
:101F9000A5FA2946032013F0A1FA2946052013F0DB
:101FA0009DFA40F602013B6804201940003118BF39
:101FB000012113F093FA2946022013F08FFA3968B1
:101FC0000620C1F3C01113F089FAD9F800100720D8
:101FD000C1F3C00113F082FAD9F800100820C1F350
:101FE000800113F07BFA39680920C1F3802113F0D6
:101FF00075FA049B049A1B7863F07F03137021B079
:10200000BDE8F08F032B7FF469AAFFF73ABA05F118
:10201000010B45466AE701200DF0C6FFFFF7F9BB4B
:1020200002230420B37008F057F8FFF70ABB134AE5
:10203000136823F008031360FFF7BFBBA410002050
:10204000A11000200412002068190020BC300020DC
:102050000439002000390020D03C00201803002063
:10206000D23C0020D43C0020001200205830002038
:1020700050030020543000204C240020282F002042
:102080002DE9F04F9A4BA3B01B68CDE904019D6A7E
:10209000984B28461D6016F099FF974916F0EAFF05
:1020A000964C974B974F1860E3782BB9954D7B680A
:1020B0002846984798B9E4E0934EFB6853B93368D3
:1020C00003F1630813F0ACFC049BC01A284480455C
:1020D000F3DAEBE78B4898470028F0D0E6E78B4E21
:1020E000B6F848B0BBF1000F46D1B5F92620B5F9D6
:1020F0002030874C9B1A2360B5F92820B5F922308F
:10210000844E9B1A6360B5F92A20B5F9243095F8FE
:1021100030109B1A2046A360B14613F016F87E4D8E
:10212000DFF8148254F82B0016F050FFF96916F00E
:10213000A1FF33784FEA8B0A012B014605D10690A7
:1021400017F098FD069928F81B00744A744B5AF84A
:1021500002001B68984799F800308246022B03D191
:1021600017F088FD28F81B000BF1010BBBF1030FE2
:1021700045F804ABD6D184E04FF0000963783746C8
:102180003446CA460693B6F84830B5F92000B3F590
:102190007A7F04BFC7F800A0C4F81CA007933B686F
:1021A00003443B6016F012FFE26902F10108B8F146
:1021B000010FC4F81C8004D100232061E06063613A
:1021C00022E0E26809901146089216F049FE834623
:1021D000404616F0FBFE0146584616F0FFFF089AEF
:1021E000114616F03FFE099B0146804620611846C5
:1021F00016F036FE594616F03DFF616916F032FEC4
:10220000C4F80C80A0616061079BA5F826A0012B93
:1022100022D1E069012807DD013816F0D7FE01461A
:10222000A06916F0DBFF00E0002017F0DDFE069B42
:1022300080464BB1184616F0C9FE414617F0B8F873
:1022400010B14FF47A7315E03B684FF47A7203F5DE
:10225000FA7393FBF2F3EB8409F10109B9F1030F6F
:1022600005F1020507F1040704F114048BD1B6F857
:102270004830013BA6F84830234B00225A609A6050
:10228000DA60284B1B689C0740F1F081264C63689C
:1022900020469847A246002800F0E481B4F90E30A9
:1022A000E362B4F910302363B4F9123063631F4C56
:1022B000638806942BB91E4D2F88002F00F0A6814D
:1022C0003CE01C4F0AF1280600254FF01C0856F888
:1022D000040F16F07BFE014608FB05700DF022FF8F
:1022E00017F0C8FC0135032D3060F0D1E3E700BFE3
:1022F00084300020AC100020BD37863560110020EE
:102300001C240020D41000204C2400206819002038
:10231000D80C00209C07002050240020C80B00206F
:10232000700B0020282F0020B42F0020EC2F00205D
:10233000CC10002000300020F8110020DAF8349092
:1023400089EAE970A0EBE97016F040FE4FF07F518A
:10235000804616F043FFDAF82C40834684EAE470A6
:10236000A0EBE47016F032FE06460146584617F020
:102370003DF8A0B1274B186B0028B8BF404216F0BB
:1023800025FE0146584617F031F840B1B9F1000F6B
:10239000D4BF4FF001084FF000083DDC58E04FF08B
:1023A0007F51304616F01AFFDAF83070834687EA1C
:1023B000E770A0EBE77016F009FE8146014658462B
:1023C00017F014F858B15946404616F0F1FF30B1F5
:1023D000002CCCBF4FF002084FF0030838E04FF05C
:1023E0007F51484616F0FAFE81460146304616F007
:1023F000DFFF002800F00A814946404616F0D8FF6A
:10240000002800F00381002FD4BF4FF005084FF0E3
:1024100004081DE0B42F0020B7F5C87F18D10023B1
:102420001946BF4ABF4819540133062B42F8041C11
:102430001160516002F10C02F5D1BB4800234365E5
:1024400058300EF06BFAB94A136823F40073136026
:10245000B44FB54E17F808300BBBB54906F158001C
:102460000EF0B4F90C2101FB0861DAF82C30CA68CF
:102470001344CB600A69DAF8303013440B614A69BF
:10248000DAF8343013444B612B88012B07D107F85D
:102490000830736D0220013373650CF0FBFA736D25
:1024A000062B40F0AF8014AF3946A2480EF073F906
:1024B000002557F8150017F0DDFB069B9E4E2B44B8
:1024C0000235062D9880F4D19A480EF027FAB6F915
:1024D0000430934C0793B6F9063000270893B6F9F9
:1024E00008304FF4C87B0993BAF80C30A4F11008F7
:1024F0000A9354F8043C079A93FBFBF39B1A179337
:102500002368089A93FBFBF39B1A18936368099A54
:1025100093FBFBF39B1A1993864B7D1003EB051677
:102520000C3603F1400206964FF0000917AB53F842
:1025300029000C9216F04AFD0B900A9816F046FD01
:102540000B9B0146184616F049FE014616F092FD17
:10255000069B01460B9053F8040F09F101090693FD
:1025600016F080FC0C9A0B9B46F8040F1068194675
:102570000B9216F077FC0B9AB9F1030F42F8040B9B
:10258000D4D108EB05164FF07E51706F16F06AFC3F
:1025900008EB850570674FF07E51A86D16F062FC60
:1025A000A865D8F864004FF07E5116F05BFC013747
:1025B000062FC8F8640004F10C049AD15D4A1AA9E8
:1025C00002F110000EF039F81A9817F00DFD149072
:1025D0001B9817F009FD15901C9817F005FD564D36
:1025E0001690002414AB53F814004FF08B4116F0F2
:1025F00041FD17F03FFB63190234062C5881F1D1DD
:1026000010F0DDFE4D4A1388013B13804A48DAF88A
:102610002C30B0F904204FF480549A1AB0F90A30E3
:10262000B0F90C105A4392FBF4F2DAF83030CAF8E1
:102630002C20B0F906209A1A4A4392FBF4F2DAF8F9
:102640003430CAF83020B0F908209AF815109B1AD7
:10265000B0F90E203648534393FBF4F3CAF83430F4
:1026600012F073FD304B012283F8A8202E4CDDE9D7
:102670000423D4E92C67C4E92C23314B314D1B686A
:1026800013F0020F6AD094F8A830002B66D0DFF860
:10269000C0902D49D9F8040016F0ECFCDFF8B480A6
:1026A0002949C8F80000D9F8080016F0E3FC2649CB
:1026B000C8F80400D9F80C0016F0DCFCC8F80800D3
:1026C000A88916F083FC0146204816F087FD814654
:1026D000DFF884A04FF0000805EB0803D86A16F075
:1026E00075FC494616F0C6FC4AF8080008F10408D3
:1026F000B8F10C0FF0D1DDE90401801B61EB07019B
:1027000016F08AF804A3D3E9002316F0BBF816F0FC
:1027100053FB06F097FE25E08DEDB5A0F7C6B03E61
:10272000E80C0020CE100020D80C0020A4220020AD
:10273000E02F0020300D0020EC2F0020CC100020D6
:10274000282F0020B42F002035FA8E3C8F2A7544A4
:102750004C240020C0190020CC1900200023EB627B
:102760002B636B63BB4B1A790693002A7ED0BA4B5E
:10277000BA4D1B6813F0100306D1ADF86830ADF800
:102780006A30ADF86C303FE0B54BB5F908001E6813
:1027900016F01CFCB6F95470394606F053FCADF83F
:1027A0006800B6F95660B5F90A0016F00FFC31461C
:1027B00006F048FCAB4BADF86A001B68D87916F000
:1027C00005FCA94916F056FC0646B5F90C0016F0B2
:1027D000FDFB314616F046FBA44916F04BFC314692
:1027E0000746304616F03EFB0146384616F0F6FC2A
:1027F0009E4916F035FB9E4916F034FB00F100406F
:1028000016F014FEADF86C002B889A4AADF86E30C5
:10281000EB79128803EB8305974B984E1968984B18
:1028200011F4805FDB8A974818BF1A4600231F46C1
:1028300012B259193144497801290BD005D3022924
:1028400010D11AA931F813100AE0069901EB4301DF
:10285000498D05E0032B14BF20F81370C28001E0FE
:1028600020F813100133042BE3D1A1E07D4BDFF8F6
:102870004492D3F80080844E98F802A099F800B0F2
:1028800051465A46B6F9000010F048F97D4D5146C0
:1028900028805A460746B6F9020010F03FF96880D2
:1028A00098F80910824699F80120B6F9040010F052
:1028B00035F9734BB6F906101E8B404200B2B14297
:1028C000A88005DBB1F5FA6FA8BF4FF4FA6100E00C
:1028D0003146891B4FF47A725143C6F5FA66B1FB53
:1028E000F6F14FF0640C91FBFCF3684A03F1010E22
:1028F00032F9136032F91E20C6EB020E6FF063024C
:1029000002FB031202FB0EF292FBFCF30699334426
:10291000C9781BB2EB804F4A002943D05C4B1B683F
:10292000580645D55B4B0A20B3F9043093FBF0F011
:10293000594B1B88C01A00B216F048FB574916F0D5
:1029400099FB06460EF00AF9804630460EF096F8DE
:102950000646504616F03AFB8146384616F036FBDE
:1029600001460746404616F085FB494682463046FA
:1029700016F080FB0146504616F072FA16F056FD2E
:1029800049462880404616F075FB39468046304659
:1029900016F070FB0146404616F064FA16F046FD4C
:1029A000688005E05785A2F82CA0D0851386B5E78E
:1029B00010F016F9324BDFF8CC8093F82030002B62
:1029C00000F09A80364B374D1F7894F8B8304BB9E9
:1029D000354B01211A6805F1BC000AF00BF8012300
:1029E00085F8B830314B2F4E186816F0EFFA0146D3
:1029F00006F1BC000DF096FB2D4B5D8816F016FD20
:102A000095FBF0F0451C2DB2A4F8D850002F53D000
:102A1000B6F9DA90DFF86CA00023224E3AF913E001
:102A200006F1DC0C3CF9131006F1E40709FB01F197
:102A300091FBF5F137F8132027F813E0C2EB0E02F3
:102A40000A442CF813200133042BE6D1A6F8DA004F
:102A500037E000BFC0300020A4220020081A002068
:102A600004240020182400200000204100007A44A3
:102A70000000FA434A1900202C2F0020D8B4010886
:102A80008830002008240020E0230020921A002033
:102A900020240020102400204614002035FA8E3C0B
:102AA00048140020D80C00204C240020AC1000203A
:102AB000D4230020AA1A0020B6F8DA30013BA6F889
:102AC000DA30B4F9DA008E4A00284FF0000311DD45
:102AD000B2F9D850E4328B4932F8136031F913104F
:102AE000414391FBF5F1711A28F813100133042BBF
:102AF000F1D101E0A2F8DA30834B1F780493002F64
:102B000000F0C981814B824E1A68994612F0040F79
:102B1000804D0AD12B7A002B3AD00722D5F8181114
:102B200005F5807013F07AFB32E0152007F08CFB7E
:102B3000E0B194F8EC30E3B141F2100A764B1B6837
:102B400003EA0A0ABAF1000F13D12B7A8BB133686A
:102B5000D5F8181113F0010F0CBF0722052205F557
:102B6000807013F05BFB84F8ECA002E0012384F892
:102B7000EC303368D9070BD5684813F009FCC5F869
:102B8000A401664813F07AFBC5F8A80113F02CFBEA
:102B9000634BD9F800201B685207D4F8F000C4F842
:102BA000F0300FD5181A16F011FA5E4916F062FAD5
:102BB000D5F8301116F05EFAD5F89C1416F052F9DB
:102BC000C5F89C042B7A63B13368DB0709D594F808
:102BD000F43033B90E200BF085FE494B012283F807
:102BE000F420AB7B33B1162007F02EFB10B9494B14
:102BF0000122DA73162007F027FBA873182007F0CC
:102C000023FB287413F064F913F046FD2A78464B31
:102C10001C2101FB0233B3F80A90DFF824A119F458
:102C2000006F52D03C4B1B6858054ED433683F4A66
:102C300013F0100F23D092F803B0BAF902005946EE
:102C40000DF07AFE00B298B1394B40429B8A58434E
:102C500016F0BCF90790584616F0B8F90146354809
:102C600016F0FEF8079B0146184616F0B7FA27E063
:102C70002B7B5BB30021002013F00EFA25E02E4BD6
:102C800092F803B0B3F90030BAF906005946C01AF9
:102C900007930DF051FE00B20028E9D0244A2749DD
:102CA000928A079BCCBF4988098800FB02F0CCBF01
:102CB000C91A591ACBEB010190FBF1F016F086F915
:102CC000012113F0E9F93B4600E0002319F4805F8D
:102CD0002B7300F0A880104B1B68590500F1A380EE
:102CE000336813F0100F114B2CD09978BAF900000B
:102CF0000DF022FE00B2051C18BF012590E000BFB8
:102D0000D80C0020B40D0020481400201C1900200D
:102D1000A4220020741C002020240020F81D002084
:102D2000BC3000206F12833AD0C60108AA1A0020D6
:102D3000702100200000FA431C0000204A190020E6
:102D40000824002093F802A0B8F9020051460DF0C3
:102D5000F3FD51460FFA80FBB8F900000DF0ECFDD1
:102D600006B2BBF1000F01D1002E4CD0744B9D7800
:102D7000012D54D1B3F81280CAF5FA7308FB0BF099
:102D800090FBF3F0079316F021F9824608FB06F05A
:102D9000079B6C4E90FBF3F016F018F9D6F8203133
:102DA000804619465046089316F064F9D6F81CB1CF
:102DB00007905946404616F05DF9079A01461046BD
:102DC00016F04EF8716916F009FAD6F8001116F0EF
:102DD00049F85946C6F83401504616F04BF9089B9D
:102DE00082461946404616F045F90146504616F00F
:102DF00039F8B16916F0F2F9D6F8041116F032F884
:102E0000C6F838010CE0ED7A55B11AA80EF060FE54
:102E1000012231461AA813F05FFA354600E0012579
:102E2000484BDD7201E00023EB7219F4005F454D61
:102E30001DD0454B1B6813F4806218D1434B1B68AF
:102E400013F010030ED1424A4249B2F904208978A6
:102E5000002AB8BF52428A4206DDD5F81831C5F8BB
:102E60004C3102E0174600E01F466F7301E000237B
:102E70006B732A78384B1C2101FB02339E8941F287
:102E8000B800F343184007F02FF9304607F03CF93B
:102E90002B78A4F8F630049A94F8F85000231370B5
:102EA0002E4E002D3AD12E4A2E49106B15F0DAFF26
:102EB00000220021C6F89800C6F89C000020C6E950
:102EC0000001C6E90A01C6E90E01C6F8A020C6F84D
:102ED000A4207266C6F88020C6F88C20B266C6F8B8
:102EE0008420C6F89020F266C6F88820C6F89420A0
:102EF00029464FF4967206F1B40086F8B05086F871
:102F0000705017F0D4FD4FF49672294606F5F07014
:102F100017F0CDFD144A012182F8F81012F080FD5F
:102F2000CDE9040106F092F910BB0022B265F2650A
:102F300032660E4A86F870001268C4F8FC20C4E0BD
:102F400070210020741C002020240020A4220020D6
:102F500008240020AA1A0020D0C601081039002039
:102F6000141200206F12833AD80C0020BC300020CD
:102F7000A54D716E286815F073FFB16E83466868C1
:102F800015F06EFFF16E8246A86815F069FF9F4D3F
:102F90008146A969584616F06DF8E96980465046A1
:102FA00016F068F80146404615F05CFF296A804635
:102FB000484616F05FF80146404615F053FFE968B1
:102FC0008046584616F056F829690746504616F0CE
:102FD00051F80146384615F045FF696907464846ED
:102FE00016F048F80146384615F03CFF296800F114
:102FF0000047584616F03EF869688346504616F07A
:1030000039F80146584615F02DFFA9688246484612
:1030100016F030F80146504615F024FF7C4BB065A1
:103020001B68F76513F0040FC6F86080794D2FD147
:1030300095F870307BBBDFF8ECA14046DAF804B0BD
:10304000594615F00DFF7449814616F013F859469C
:1030500015F008FF0021CAF80400484616F0A8F948
:1030600008B109F100496D4B987815F0AFFF49465A
:1030700016F0BCF96A4B1B6840B1D4F8FC209B1ACF
:10308000FA2B0FD9012385F8703001E0C4F8FC3029
:1030900095F8703033B1634B4046596815F0E0FE47
:1030A000286603E00023AB65EB652B66A86D16F080
:1030B000BDF9A4F80001E86D16F0B8F9A4F8020112
:1030C000286E16F0B3F9A4F80401DDE904010DF04F
:1030D000A9FF554B554DB3F904000A235843C5F8D1
:1030E000180115F073FF524916F078F8514915F0A0
:1030F000C1FF80460DF0C2FCC5F81C0140460DF032
:103100002DFDDFF834E1C5F82001DEE90023DDE91B
:103110000401801A61EB03010B46024644F61F606E
:10312000002199424FF0010908BF904285F80490B0
:10313000DFF8DC8080F0B280364E384FCEE90223D3
:10314000DDE90423396BCEE90023D6F8980016F0A8
:103150002FF950B1D6F8903048460093D6F88C300D
:10316000D6F88420D6F8801005E000230093D6F826
:103170008420D6F8801013F0E9F9396BD6F89C005A
:10318000DFF8909016F014F928B1D9F89420D9F806
:103190008810012002E0D9F88810002213F0A0F96D
:1031A000D6F8A070D6F8A41096F8A8301F4AC5F833
:1031B0002471C5F828111BB101215172D17001E0B1
:1031C0005372D370D8F80020520737D5002B38D06F
:1031D000D5F824A100215046DFF8509016F006F9EA
:1031E00078B3D9F82CB10021584616F0FFF840B159
:1031F0005946504616F0FAF800B1DA46C5F82CA147
:103200001FE0C9F82CA11CE0CC19002024240020C8
:103210001C190020103900200AD7233B141200206B
:10322000BC3000201C00002010240020741C002052
:103230000000C84235FA8E3CE00D0020AF4BC5F8C7
:103240002C31384616F0F2F896F8B0E00C2303FB68
:103250000E63AB4F03F1B40C07F18002A4F8180120
:1032600003F5F07307CA8CE8070007F18C0207CA60
:1032700083E807000EF10103DBB2182B88BF00239F
:1032800087F8B030D6F8980016F0F6F8A4F81A01CE
:10329000D6F89C0016F0F0F8A4F81C0112F0C0FB60
:1032A0008A46E97900238146A4F81E3119B1954B6D
:1032B0000122A3F81E216B7A2BB1B4F81E3143F022
:1032C0000203A4F81E312B7A2BB1B4F81E3143F05F
:1032D0000403A4F81E31AB7A2BB1B4F81E3143F0CD
:1032E0002003A4F81E31884A136823F08000106080
:1032F000D8F8002012F0040201D16A748EE2002294
:103300006A71AA71814E2A781C2707FB026213F0AA
:10331000100E7F48B2F80A8005D04A465346404610
:103320000EF06EFD25E218F0080F7A4F4FD0754A67
:10333000D4F82031C2F824A1C4F82091A7F800E005
:10334000A7F802E0A7F804E000293CD07249C3EBDB
:1033500009038B4206DDC2F82891C2F82CA10EF0B9
:10336000F7FB06E283786D4EEBB1D2F82831C2F854
:103370002CA1C3EB09086A4BC2F8289198450EDCD2
:10338000B08B15F023FE012100F1004012F084FE05
:1033900040460EF085FC40460EF038FC01E00EF091
:1033A000D7FB0123AB71B6F926205E49B5F99834F5
:1033B00013440A884988934203DB99420A46A8BF0E
:1033C0001A46FA80D5E1584B1B88FB80D1E118F0F2
:1033D000010F3DD0D4F830214F494A4BC2EB0902CE
:1033E0008A42C4F83091C3F834A106DDC3F838919D
:1033F000C3F83CA10EF0ACFB2AE08278AAB1D3F866
:103400003821C3F83CA1C3F83891454BC2EB090BF6
:103410009B4506DC58460EF043FC58460EF0F6FB82
:1034200001E00EF095FB0123AB713C4B3D49B3F934
:103430002620B5F998341A440B8849889A4203DB50
:1034400091420B46A8BF13461BB2FB80A4F8403143
:1034500018F0020F00F08381344BD4F84821C3F8F0
:1034600004A02E4BC2EB09029978C4F848919B4600
:1034700009B9EB7A00E000230493274B9A4207DD59
:103480002B4BC4F85091C3F804A00EF03FFB66E14B
:103490002B7A1F4F002B00F032817B78002B00F03D
:1034A0004581234BD4F85021C3F804A0049BC4F8F1
:1034B0005091002B40F01F81C2EB09030793079A3C
:1034C000174B9A4200F31581D7F80011D7F8340151
:1034D00015F0C6FC796915F0CDFDD7F804118246C8
:1034E000D7F8380115F0BCFCB96915F0C3FDFB7ABB
:1034F0008146FBB1BBF8120047E000BF000080BF6F
:1035000010390020D80C0020A4220020D0C60108C9
:10351000741C002008240020400D030070210020AE
:103520003F0D03004A190020081A0020200E002039
:10353000280E00203B781C2202FB03667389BBF82F
:103540000EB05E0520D597F97D34002B1CDD97F970
:103550009034182202FB037797F8AC31012B13D17A
:10356000B7F9BC61304615F031FD6749074615F0E3
:1035700033FF48B1584615F029FD0146384615F08D
:1035800021FF08B11FFA86FB584615F01BFD514676
:103590000746504615F06EFD49460646484615F06A
:1035A00069FD0146304615F05DFC16F01DFD3946FB
:1035B000834615F01BFF80B15946504615F00EFEAC
:1035C000394615F057FD59468246484615F006FE25
:1035D000394615F04FFDBB4681462A784B4B1C20DF
:1035E00000FB02335B894A49580527D5D1F81831C9
:1035F000D1F84C01C01A0DF0AEF942F228339842CE
:10360000A8BF1846434B9842B8BF184615F0DEFCD9
:10361000414915F0E3FD414915F02CFD0DF09EFAEE
:10362000014615F027FD3E49064615F0C1FE40B99A
:103630004FF07E51304615F0D9FE18B14FF07E564E
:1036400000E0374E3946584615F0C8FD3549074663
:1036500015F0AEFE40B94FF07E51384615F0C6FE6B
:1036600018B14FF07E5700E02E4F3946384615F01E
:1036700001FD01464FF07E5015F0F2FBD5F8FC102D
:1036800015F0F8FC01464FF07E5015F0E9FB0746B7
:103690003146504615F0EEFC394615F0EBFC31464C
:1036A0008246C5F84001484615F0E4FC394615F05D
:1036B000E1FCC5F84401504616F0DCFA47F6FF7607
:1036C000B042A8BF3046184FB842B8BF3846A4F839
:1036D0005801D5F8440116F0CDFAB042A8BF3046E3
:1036E000B842B8BF3846A4F85A01079809F04DF817
:1036F00001E00EF00BFA064B01225A7116E0A7F812
:103700009434A7F892342AE000004842D0C6010859
:10371000741C0020D8DCFFFF0000C84235FA8E3C44
:10372000CDCC4C3D0AD7233C5A80FFFF049BB3B954
:10373000A84BB5F994041F6815F048FCB7F956601A
:10374000314605F07FFCA44EB7F954707080B5F98E
:10375000920415F03BFC394605F074FC308018F0FB
:10376000040F06D0D5F84C31642293FBF2F39B4A48
:1037700013806B7913B19A4B00225A70AB7913B155
:10378000974B00229A70EB7A2BB1B4F81E3143F0BC
:103790004003A4F81E312B7B2BB1B4F81E3143F04B
:1037A0008003A4F81E316B7B2BB1B4F81E3143F4B7
:1037B0008073A4F81E31D5F8340147F6FF7616F071
:1037C00059FAB042A8BF3046864FB842B8BF384613
:1037D000A4F85E01D5F8380116F04CFAB042A8BF43
:1037E0003046B842B8BF3846A4F86001D5F83C016D
:1037F00016F040FAB042A8BF3046B842B8BF3846CB
:10380000A4F86201D5F8500116F034FAB042A8BF0E
:103810003046B842B8BF3846A4F86401724BDFF8AE
:10382000B8811B78C3B1714BB3F90620704B1B8B69
:103830009A4211DC6F4B1B78012B01D0192B02D15E
:103840006D4A527A42B90E2B06D003F0EF03082BD3
:103850001CBF0023A8F80430684B1B6813F010034A
:1038600004935DD12A78664B1C2101FB02335B89EE
:10387000D90509D4634B5F7A002F51D0624B1B6886
:103880009A074DD03FB200E06427604B60491D6A43
:10389000284615F08DFD002840F0D5874FF07E5169
:1038A000284615F0A3FD08B14FF07E5529464FF08C
:1038B0007E5015F093FC4FF07E5115F0D1FA05467D
:1038C000384615F083FB534915F088FC014628461D
:1038D00015F0D0FB4FF07E5115F0C4FADFF844919B
:1038E0000546B9F80060B8F90600801B15F06EFBBC
:1038F0000146284615F0BEFB0546304615F066FB2E
:103900000146284615F0AEFA15F090FD8642B9F84A
:10391000023003DC8342A8BF03461E46A8F80660B7
:10392000B4F86631B8F906709F4218BF3A4A3B4B6B
:103930001EBFA2F8667101221A701B78002B00F0DE
:103940001E81374B049A1B68002A6DD01E7A002E08
:1039500000F081801888334B1D88A8427BD9AF4284
:103960001EDD401B15F032FB8146781B15F02EFB47
:103970000146484615F032FC4FF07C5115F07AFBB9
:103980004FF07C5115F06EFA4FF07C51054615F062
:103990000FFD40B94FF08041284615F027FD20B1BA
:1039A0004FF0804501E04FF07C55304615F00EFB9E
:1039B000184915F013FC4FF07E510646284615F0C5
:1039C0004FFA0146304615F055FB4FF07E5115F089
:1039D00049FA3EE00424002008240020A02500200D
:1039E000741C00205A80FFFF0C010020E0230020FF
:1039F000883000206019002008120020A422002036
:103A0000D0C60108B010002020240020242400206B
:103A10009A99193F0000C842D80C0020A01000203D
:103A2000182400204A190020187AA0B119888F4262
:103A300011DBAC4B5A889742BFBF7B1A4343501AE5
:103A400093FBF0F0C0F1640015F0C0FAA64915F040
:103A5000C5FB074601E04FF07E57A44E4FF000092A
:103A60004FF0000A049B4FEA49055BB305F032FBB7
:103A70004D44405D15F0AAFA9D4915F0AFFB39465B
:103A800015F0F8FA46F8040C05F024FB28444078B9
:103A900015F09CFA4FF07A5115F0ECFA394615F012
:103AA000E9FAC6F804A0306005F014FB28448078D9
:103AB00015F08CFA8E4915F091FB394615F0DAFABB
:103AC000B0604FE0B9F1020F0CBF4FF07E5BBB4618
:103AD00005F000FB4D44405D15F078FA844915F07F
:103AE0007DFB594615F0C6FA46F8040C089005F01F
:103AF000F1FA2844407815F069FA4FF07A5115F040
:103B0000B9FA3060079005F0E5FA2844807815F09E
:103B10005DFA784915F062FB594615F0ABFAC6F824
:103B200008A07060834605F0D5FA4119405DC8B120
:103B30004978B9B1079A089B11461846079315F0C2
:103B40004DFB079B05461946584615F047FB0146B5
:103B5000284615F087F901464FF0804015F03EFBEE
:103B6000F06001E0C6F80CA009F10109B9F1030FFA
:103B700006F16C067FF476AF5F4B00221A700BF0F3
:103B800099F85E4B5E4E1B685E4F13F0100F0AD023
:103B90005D4B1B68DB0506D5B8F900A0B8F902300B
:103BA000B8F904001EE0594AB2F900A0B2F9023097
:103BB000B2F904003A78032A14D9B6F802E0BEF547
:103BC000FA7F0FD2B8F90450CEF10001002DB8BF32
:103BD0006D424A1B904204DB0EEB05028242A8BFF5
:103BE000024610B297F8009096F901700026B3468D
:103BF00035467F424743DFF830814E4534DA184678
:103C0000079315F0E3F9D8F8081015F033FA04908B
:103C1000504615F0DBF9D8F8041015F02BFA049A89
:103C20000146104615F01EF90490384615F0CEF9FD
:103C3000D8F80C1015F01EFA049A0146104615F03B
:103C400011F915F0F3FB00B21AAAA84222F81600E7
:103C5000079B02DC584502DB2846054658460136DC
:103C600008F110088346C8E7294FCBEB05053B68F0
:103C70002DB213F4805F1B4A0497264B56D0264979
:103C8000B3F906700968254B4E0758BF2349D88AF7
:103C9000234B58BFC98A9B8858BFA4F86811C11A22
:103CA0008F42204E04DCB6F90030B2F900B006E0D5
:103CB00003449F4206DBB2F90230B6F902B0A4F821
:103CC000687139E0B4F968319942A9BFB6F900309A
:103CD000B6F902B0B2F900B01F46BCBFB2F902306B
:103CE0005F4629E04A1900200000C84260240020F5
:103CF0000000F8410020EE44A0100020A422002083
:103D000060190020E825002020240020B025002094
:103D10002C2F0020082400201C19002088300020AF
:103D2000AA1A002044190020C00A0020B3F9067026
:103D3000B2F900B0B2F90230CBEB03080FFA88F801
:103D40004545A74A41DD01231370404615F03EF971
:103D50000646284615F03AF90146304615F03EFA77
:103D600005464FF0000AD14510DD1AAB33F91A00B1
:103D7000079315F02BF9294615F07CF915F056FB41
:103D8000079B23F81A000AF1010AECE70223954980
:103D9000304698FBF3F815F06DF94FF07C5115F0B3
:103DA00069F905460BEB080015F010F9294615F0E6
:103DB00057F815F03BFB0FFA80FA0AEB080015F0F4
:103DC00005F9294615F04EF840E0002111704046F3
:103DD000079315F0FBF8834915F04CF94FF07C512F
:103DE00015F048F9022695FBF6F598FBF6F68046A5
:103DF0000BEB060015F0EAF8414615F031F8824663
:103E00000BEB050015F0E2F801468346504615F02D
:103E1000EDFA079B00B9D3465846079315F006FB09
:103E20000FFA80FA0AEB060015F0D0F8414615F0BB
:103E300019F8079B0646581B15F0C8F805460146B9
:103E4000304615F0B5FA00B93546284615F0EEFAB9
:103E5000654B02B21B6813F0040302D1634A644944
:103E6000A3E0069B6349DB780693049B1D6805F479
:103E700080530793B4F968310C8809935E4B0B9417
:103E8000D88A5E4B49889B880491C31A0A935C4B7D
:103E90001E88B3F80480B3F802B005F0100308934D
:103EA000584B594D1B6803F080030C93574BB3F9E3
:103EB00006300D93504B1B8B0E930FFA88F3109323
:103EC00003B20F934FEA49031193514B4FF000098E
:103ED0001C88DB79B4422CBF00240124002B069BF4
:103EE00018BF0024002B08BF0024119B4B4555D060
:103EF0001AAB39F8033038461392129315F066F86E
:103F0000444B53F8391015F0B5F815F08FFA5045B9
:103F10005146129B139A03DB90420146A8BF1146FB
:103F20000B4406991BB225F8023F61B1434503DB00
:103F30005B45A8BF5B4600E043462B80089B002BF7
:103F400040F0848427E0079979B109990A98814261
:103F500006DCB3420FDB0B998B42A8BF0B460BE08C
:103F600004998B4203DA049B06E09E4203DC5B4526
:103F7000A8BF5B4600E033462B80089B5BB10C9BDF
:103F8000002B40F06684002C40F063840D9B0E995A
:103F90008B42C0F25E8409F10209A6E71E4B1A7833
:103FA0000793002A00F0E38107E09945F6DD31F838
:103FB000130022F813000133F7E7184B0E481B6873
:103FC0000493174B1A68114B12F4807F2CD01549BB
:103FD0000C88ADF868404C888988ADF86A4038E0B4
:103FE000E9250020C3F5A83E1C190020381900203F
:103FF000541900204419002088300020AA1A0020FB
:104000004A190020A422002036190020E0230020B5
:10401000081A0020C00A0020410800201C240020AB
:104020002024002008240020BD490C88ADF86840F9
:104030004C88B1F90410ADF86A40BA4CADF86C1078
:104040002468E40407D5B3F90650C48AA54202DA0D
:104050004942ADF86C1012F4804218BFB24AB34D19
:1040600018BFB2F906204FF47A71ADF88420B5F983
:1040700002204FF4616402F5E1624A4392FBF4F2DC
:10408000A2F5FA72ADF88020B5F9002002F5E162E0
:10409000514391FBF4F1A64AA1F5FA711288ADF8EB
:1040A0008210A2F2DC521988ADF86E20C28A891AF9
:1040B000ADF870105988891AADF872109988891A6C
:1040C000ADF87410D988891AADF876101989891A53
:1040D000ADF878105989891AADF87A109989DB8979
:1040E000891A9A1A0023ADF87C101946ADF87E2083
:1040F000904A22F813100133082BDFF83882F8D1E8
:104100008D4B8E4C1B788E4E04EB830306934FF041
:10411000640B069B8B4DA34253D014F8017C22AB59
:1041200003EB470333F9200C14F050FF0546607889
:104130000A23584314F04AFF002114F8029C8246D7
:1041400015F054F9E8B15146049814F093FF7268E1
:10415000014609901046089214F082FE82460146FC
:10416000284615F025F958B9089A099B11461846B2
:1041700014F078FE82460146284615F037F900B162
:104180005546756056F8040F15F050F90C2303FBE3
:1041900009F3012202FA07F76A4A00B2D35814F968
:1041A000042B1F4200FB02F00CBF01234FF0FF3332
:1041B000584390FBFBF038F81930184428F81900E0
:1041C000A7E7AA46DFF86C915F4E00246427B9F98F
:1041D00000309AF90A004FEAC40B584390FBF7F0FD
:1041E00000B20028A9F8000004DD14F0EFFE56F834
:1041F000341004E0B34414F0E9FEDBF8041014F0CA
:1042000039FF15F013F9A9F80000E0B20AF092FCAA
:10421000B9F80030BAF906201844BAF9043000B2EF
:10422000984203DB82421346A8BF03460134082CA0
:1042300029F8023B0AF10C0AC9D11B2006F004F848
:10424000424C94F8AC31002858D0012B25D003D330
:10425000022B00F083808AE03D4B1B685F0740F132
:10426000868002230C27002007FB0356374A368935
:1042700002F5D77121F8136002F5E07141F82300CF
:104280000133062BF0D1334B1B68C2F8E031002319
:10429000C2F8E431012382F8AC312D4B1B685E0774
:1042A0003BD5D4F8E4612C480136C4F8E46102231C
:1042B00038F9134050F823202449224440F82320A1
:1042C0000133062B01F5E074F2D1224BD1F8E02145
:1042D0001B689B1AB3F57A7F49D902230C2054F846
:1042E000232000FB035192FBF6F20133062B0A81D7
:1042F000F5D1164B022283F8AC2138E0022B0CD109
:10430000B4F8B2312B84B4F8B431AB85B4F8B6311B
:104310002B87B4F8B831A5F84430002325E000BF5E
:10432000B02500202C2F002008120020102400208F
:10433000381900201C110020F0220020F522002056
:10434000400E00207423002048080020D80C0020D4
:104350001C190020BC300020980E0020A54B1B68C3
:104360005D0704D40FF02BF8032384F8AC31A24D81
:104370002B689C0642D500200AF0DCFB9F4C0746C8
:10438000208001200AF0D6FB06466080072005F059
:104390005BFF98B39A4B9B4993F8E8319A48012BFD
:1043A00019D190F90A30B1F902205B42534390F9D8
:1043B0001600B1F900204FF0320E50436FF031017A
:1043C00093FBFEF390FBF1F190FBFEF019447A1A97
:1043D0002280184410E090F90A20B1F9023090F9D7
:1043E00016005A43322392FBF3F23A442280B1F989
:1043F0000020504390FBF3F030446080834B1B68F7
:104400003BB9834B1B78002B00F0A18004F070FEB9
:104410009DE0804EB6F9043023B978487A4A0023EB
:10442000844631E0764F97F8E94107F5F67774B99D
:10443000DFF804823819D8F80020B1881C3408F05D
:10444000D9FAE02CF6D16E4B012283F8E921DFF88E
:10445000AC8100244FF01C0938F9140014F0B6FDAB
:10446000014609FB04700BF05DFE14F0DFFF28F835
:1044700014000134082CEFD1CFE70133082B2CF8BE
:104480000E1002F10C020FD030F91340B2F90410F3
:104490004FEA430E8C42B2F90680584FEDDBA0453F
:1044A0004146A8BF2146E8E75B4B1B78012B01D0B2
:1044B000192B0AD14F4B1B68580706D496F8098070
:1044C000B8FA88F84FEA581801E04FF00008079B47
:1044D0001C78DCB1514B1C78C4B1514BDFF85C91B6
:1044E00093F800A0002699F800200AEB06039A42F0
:1044F00034460BDBF0B2B8F1000F01D0002101E02F
:1045000037F8131006F0F0F80136ECE72B6899063F
:1045100009D5E0B2661C398806F0E6F87988F0B271
:10452000023406F0E1F82B68DA027FF56AAF3D4FFE
:10453000E4B20026A01937F8021FC0B206F0D4F882
:104540000D2E06F101033FF45CAF1E46F2E7364B39
:1045500093F80090B9F1000F40F084812B681B03A1
:1045600040F1808111F05CFA304C064623780F460A
:10457000033B052B21D82E4BDFF884809B7833B189
:10458000012B09D10AF000F9C0F17F0005E0D8F84D
:10459000CC0211F00CFC00E04846D8F8D03298F874
:1045A000D4221344B3F5807FA8BF4FF480738342B5
:1045B000D4BFC8F8D032C8F8D0022378023B092B08
:1045C00000F23B81DFE813F00A003C007B009E0014
:1045D000B500CE00E000EF000D011A01084B0022EB
:1045E000C3F8D022C3F8D822124A1268C3F8DC22DA
:1045F000032321E11C1900202C2F00201C11002076
:10460000D80C00201024002074230020440800202F
:10461000200B00200812002060190020F02200204A
:10462000F1220020E6230020D01B0020A110002052
:1046300004120020BC3000204C240020F222002074
:104640008A4B8B4A1968D2F8DC32174664338B42A6
:1046500080F0F38040200FF08DF9002840F0ED80CD
:104660003D46DFF810824026D7F8D83218F803000C
:1046700078B10FF045FAD5F8D032013E03F1FF339F
:10468000C5F8D032D5F8D83203F10103C5F8D832D5
:10469000EAD1D7F8D832774A754DD65C002E40F073
:1046A000CC80754B75491A68754812F0ACF84FF01C
:1046B000FF33C5F8DC32C5F8D8620423BCE0714A88
:1046C0005021A2F10C03019344230292009349204C
:1046D000A2F10A03163A09F0F1FC002840F0AD807F
:1046E0002B684FF0FF3113F08002614B05D0C3F807
:1046F000D802C3F8DC1205239EE0C3F8D822C3F821
:10470000DC122DE0022300935F4B00210291019106
:10471000A3F10802482009F0D1FC002840F08D8068
:10472000534B4FF0FF32C3F8D802C3F8DC22062304
:1047300082E0564A0021A2F10C0301930B2302925E
:1047400000934720A2F10803143A09F0B7FC0028AF
:1047500073D1474B4FF0FF32C3F8D802C3F8DC22C5
:10476000072369E006230093494B00210291019140
:10477000A3F10802532009F0A1FC00285DD13C4BB5
:10478000C3F8D802082357E009F030FA002854D0C3
:104790000FF034F9002850D0354B4FF48052A3F875
:1047A000E0220A2348E0112005F04EFDB0B1304D63
:1047B000B5F8E23293B9D5F8E4321AA90E201A936B
:1047C000CDE91C6712F07EF84FF48053A5F8E03273
:1047D0000A2323703046394612F0CAF812F050F816
:1047E0002BE0234B93F8E832002BF3D0112005F097
:1047F0002BFD0028EED109232370EFE71B4B1C4D46
:104800001A68D5F8DC32C833934203D2214B9E7824
:104810008EB904E00FF0F2F80028F7D10DE0D5F8DA
:10482000CC0210F00EFF95F8E932C5F8CC62022BED
:1048300001D110F07FFF012323700FF0C9F888B178
:10484000012323700EE0144DFFF730B8002C3FF425
:10485000A2AB109B0F990798002818BF0B462B801E
:10486000FFF799BB23B0BDE8F08F00BFBC3000203C
:10487000D80C002008AD01086C0C00206CD8010891
:104880000CCD01086EAD010890B00108ACB0010874
:1048900024B10108041200209A99193F2DE9F04F24
:1048A000C34E95B03578002D00F0AD80C14C206826
:1048B000002801F03D8406F0B0F92546BE4F60683F
:1048C00011F078FA002801F03384686811F06CFA6E
:1048D000092801D03F2861D14FF0000BDA46D846B5
:1048E000D4F8089007EB0B03B9F1000F08D04A4643
:1048F0005BF80710B14800930BF048FC009B30B9FF
:10490000B8F1000F01D09A4601E098469A460BF1A3
:10491000080BBBF1E00FE5D1B8F1000F1DD0D8F8BE
:1049200000E0DAF800C0A368A24A1EF803001CF8F1
:1049300003B0834511D1591CBBF1000F09D13D2BA8
:1049400007D81344916020200A44187382F80CB0F1
:1049500003E023441873A160E5E7A3680BB1D045D9
:1049600010D097480AF024FFD04507D858F8080B14
:104970000AF01EFF09200AF009FFF5E70AF02EFFF2
:104980004FF00009DFF83482A368994597D218F8F0
:1049900009000AF0FBFE09F10109F5E7AB686BB904
:1049A000042804D1854807F033FC01F0C1BB0C2872
:1049B00040F03B8283480AF0FBFE21E00C28F9D04E
:1049C0000A2840F0EB81DFF8F4810AF015FF23217B
:1049D000404616F083F810B1C8EB0000A860A36849
:1049E0000022002B40F0DD81002A40F00F8240229F
:1049F0000021724816F05BF83378002B01F09883A1
:104A00000AF0ECFE5BE7704B704C1B6803F004038C
:104A1000009354F8053C002B00F0B081DFF8B4811E
:104A2000DFF8B4A1DFF8B4B154F8050C11F0C2F905
:104A3000002800F0A38154F8050C11F0B5F914F822
:104A4000013C0646013B0B2B0DD8DFE813F01400A8
:104A50001D002A00380068007E008100C900E700C0
:104A6000F2001A013301242840F03081002384F839
:104A7000CB30012327E14D2804D0582840F0228173
:104A8000032320E102231EE13C284FF0000340F005
:104A90001A81C4F8C33084F8CF3084F8D0300423AE
:104AA00011E13C284FF0000340F00D81C4F8C33001
:104AB00084F8D030022384F8CB300A2303E1444841
:104AC000D82202FB0502D4F8C330591C1344C4F8A1
:104AD000C3105E7194F8CF30022986EA030684F889
:104AE000CF60A1D12378C02B00F2EC806278FF2A3E
:104AF00007D1052B40F2E680012384F8CB30072351
:104B0000E1E0A4F8CD2000229342C4F8C73084F835
:104B1000CC20C4F8C3200CBF0623052344E02C4856
:104B2000D82202FB0502D4F8C330591C1344C4F840
:104B3000C3105E7194F8CF305E40D4F8C73084F86B
:104B4000CF6099427FF470AF71E094F8CF30B3E05A
:104B50001F49D82202FB0512D4F8C33001465F1C5E
:104B60001344C4F8C370587194F8CF30434084F8AC
:104B7000CF3094F8D0000CF02BF8072F84F8D00039
:104B80007FF452AFB4F80320B4F80530A4F8CD2078
:104B9000A278C4F8C73084F8CC2000229342C4F82D
:104BA000C3200CBF0923082304F8013CBEE000BF6A
:104BB000D01B0020C40F00204CB10108D00F0020F2
:104BC000CCCE0108D1CE01081C19002001310020F3
:104BD000FC300020F04F0020EFBEADDE0400FA05EF
:104BE000014694F8D0000BF0F3FF84F8D000C448DD
:104BF00094F8CF30D82202FB0502734084F8CF30FE
:104C0000D4F8C330591C1344C4F8C3105E71D4F8EF
:104C1000C73099427FF408AF092354E094F8CF30AD
:104C2000434084F8CF3094F8D03083424AD10623F1
:104C300049E0B349D82202FB0512D4F8C33001463B
:104C40005F1C1344C4F8C370587194F8D0000BF083
:104C5000BFFF052F84F8D0007FF4E6AEB4F8012042
:104C6000B4F80330A4F8CD202278C4F8C73084F813
:104C7000CC2000229342C4F8C3200CBF0C230B238A
:104C800092E7014694F8D0000BF0A2FF84F8D00020
:104C90009B48D82202FB0502D4F8C330591C1344A8
:104CA000C4F8C3105E71D4F8C73099427FF4BCAE2B
:104CB0000C2308E094F8D030B34203D10D2304F85C
:104CC000013CD5E0002304F8013CADE6009B6BBB42
:104CD000232E54F8057C1CD18A4B01221A708A4B72
:104CE0008A4A5F651A659DF80020894883F8592033
:104CF000802283F8582003F150021A605F60DF645D
:104D00000BF02EF80AF06AFD824A136843F4801310
:104D10001360814B93F82030B34207D10A260A2052
:104D200010F0D3FE384611F045F878B314F8013C82
:104D30000D2B7FF479AE9BE08DF814304FF0010815
:104D400054F8050CDDF820A011F02BF8002841F0F4
:104D5000AC8154F8050C11F02AF8BB194344834286
:104D600041F3A381049E002304F8013C36B154F8BA
:104D7000050C10F05BFC54F8050CB0470135032D11
:104D800004F1D8047FF445AE01F0D2B9013EC6D19A
:104D9000624BC8F800A0C3F80CB0C7E70D2858D183
:104DA00011E6591E18F80100202831D101220B46C6
:104DB00017E608F10808B8F1E00F32D058F80710EC
:104DC000DFF878A10846009113F09CFB009981461A
:104DD0000246504607EB080B0BF0D8F90028E8D143
:104DE00005EB09031B7BA3F13002092AE1D923F06B
:104DF0002003413B192BDCD9494B9B4511D209F1CA
:104E00000100DBF80430504498470023A360EEE52E
:104E10000AB13D4A936023444FF0000883F80C80A8
:104E2000CCE740480AF0C4FCEFE77F283FF447ADE9
:104E3000A0F12002D2B25E2A3FF641AD13B920287C
:104E40003FF43DAD5A1C2344A26018730AF09EFC47
:104E500035E57F2808D1013BAB6000222B44324866
:104E60001A730AF0A5FC2AE53F2B3FF628ADDFE7D1
:104E70002E4B0DF120080FCB88E80F00D4F8C73077
:104E8000B4F8CD6094F8CC2023440D938DF83A20EB
:104E900033B20022F6B2ADF83C200492414604AA97
:104EA00030460C94ADF83830ADF8283001F058F9A0
:104EB0008246002841F04080762E0C9B40F09A807C
:104EC0005A1C0C921F7867B9194B1B68DB0752D527
:104ED000184B4FF0A50893E806023E46BA46BB467B
:104EE00059E0FF2F2CD110A9134807F08BFB10A914
:104EF00091E806024FF0A5085646D3464BE000BFA6
:104F0000FC300020D01B0020C40F00201D5A0108D7
:104F1000FCCE01081C190020BE21002000ED00E09D
:104F20002CB20108DCCE0108F8CE010830B201082D
:104F3000A4220020041C0020741D0020D00F00209B
:104F40007A1ED3B21D2B1FD8CF4B93F97D148F42FD
:104F50001ADC182101FB023303F5D87193F8ACE198
:104F600091E80602B3F9BCB1B3F9BEA1B3F9C061CF
:104F700093F8C28111E04FF0A5083E46BA46BB4601
:104F8000B9463A46394606E05646D346D1465246D9
:104F900051464FF0A5084FF0040E08980192431CAB
:104FA00008930770089814AF431C47F8303D80F809
:104FB00000E038460BF04AFA019A384611460BF0E9
:104FC00045FA494638460BF041FA1FFA8BF138464C
:104FD0000BF050FA1FFA8AF138460BF04BFAB1B2D7
:104FE00038460BF047FA089B5A1C089283F8008059
:104FF00000F0A2BF0D9F472EA7EB030731D10CA8ED
:105000000BF0F4F9052F824603D90CA80BF004FA33
:1050100000E08020099B089E9C4F9E1BB042A8BFC9
:105020003046FB6886B2CAEB03039E4240465146B7
:1050300088BF9EB20BF00AFAFB680AEB06029A429E
:10504000DDF8208088BFCAEB030609F05FFB32461B
:105050004146504609F0A8FB089B1844089000F010
:105060006BBF512E00F0E88450D82D2E00F05086F2
:1050700027D8182E00F0D28311D80F2E00F00A8402
:1050800006D8072E00F022830D2E00F06C83E4E09A
:10509000112E00F02684162E00F08C83DDE0272EE2
:1050A00000F0FA8506D8232E00F0D280252E00F0DD
:1050B000E985D2E0292E00F010862B2E00F0208604
:1050C000CBE03E2E00F086800FD8372E00F0FB8616
:1050D00006D8332E00F0A786352E00F0E580BCE020
:1050E000392E00F0E7853C2E27E0482E00F0B984E9
:1050F00006D8412E00F09D86432E00F0B586ACE028
:105100004A2E73D04C2E00F05686A6E0D02E00F02A
:105110006C8426D8C92E00F0AF8411D85F2E00F021
:10512000848206D85B2E00F03D825D2E00F0608206
:1051300093E0612E00F0FB82C82E00F0FA868CE02E
:10514000CD2E00F05A8405D8CA2E56D0CC2E00F0B1
:10515000CC8082E0CE2E00F05A84CF2E00F0138156
:105160007BE0D92E00F0CA810FD8D32E2BD005D8E2
:10517000D12E00F0CF84D22E19D06EE0D42E00F0C4
:105180006581D62E00F0538167E0DC2E00F0D381DC
:1051900006D8DA2E00F0B781DB2E00F0C5815CE086
:1051A000F22E00F08581FA2E00F03C8455E0384A5A
:1051B0001268570700F1BD865A1C0C9218780EF041
:1051C000EFF800F0B6BE0CA80BF026F9314B1880B2
:1051D00000F0AFBE5A1C0C921A462F4912F8020B6F
:1051E00088700C925B784B7000F0A3BE0CA80BF09B
:1051F00013F92A4B988000F09CBE002603F06AFF4A
:10520000DDF8308006EB4607C24608F101030C9337
:105210001AF8023B0136C35503F05CFFCDF830A00D
:1052200098F801303844437003F054FF08F1030349
:105230000C9398F8023038440A2E8370DED1184B54
:10524000012683F8DC600DF023FB334600F072BECC
:105250005A1C0C921878132803D94FF0FF3300F032
:1052600069BE9A1C0C925A78DFF838E000210C27AE
:1052700007FB01E696F808C0944500F04686013128
:105280002129F5D1E9E700BF741C0020240000208B
:105290001C190020A02500205C11002060110020B6
:1052A000C40F002070B201085A1C0C9219780B2907
:1052B000D3D89A1C0C925E78032ECED80622514386
:1052C000A64842185671DE1C0C969E7896701E1DDC
:1052D0000C96DE784654197951705979D170D91DE0
:1052E0009B790C91137100F024BE092FB5D90CA83D
:1052F0000BF09DF80C9BDFF8A4825A1C0C92D8F896
:1053000000601B780021B3700C9A022902F101039E
:105310000C93137808D1012B03DDB42BA8BFB42361
:1053200000E00B46F37108E0052B03DDB42BA8BFAA
:10533000B42300E006237018437101310329E3D13F
:10534000931C0C9353780CA8642BA8BF642333726E
:10535000D31C0C939378F3700C9B5A1C0C921B7803
:1053600033710BF059F80A2F308006D00C9BD8F817
:105370000020591C0C911B785372794A012382F842
:10538000DC3000F0D7BD0CA80BF046F86FF4AF6628
:1053900083199BB2734FC62B98BFF8820CA80BF0F1
:1053A0003BF8714E30800CA80BF036F870800CA8DA
:1053B0000BF032F8B0800CA80BF02EF86B4B6C4E53
:1053C00018800C9B0CA85A1C0C921B7833700BF0A5
:1053D0002EF80C9B0CA85A1C0C921A4612F8021BB1
:1053E00071700C925A78634EF272DA1C0C929B78B0
:1053F000FB740BF01CF80CA80BF00EF85E4B00EBE6
:105400008000400018800C9B5A1C0C921A4612F81F
:10541000021B0C925A7831703271DA1C0C929A7815
:10542000F2701A1D0C92DB78737100F082BD534F3D
:1054300000260CA80AF0F0FF052E00B2D8BF27F80E
:1054400016000136082EF4D100F073BD0F2F7FF443
:1054500004AF5A1C0C921E78072E3FF6FEAE0CA825
:105460000AF0DAFF0C277743DFF8348108EB0706F0
:10547000B0800CA80AF0D0FFF0800CA80AF0CCFF96
:105480000C9B30815A1C0C921B780CA8B3720AF04A
:10549000CEFF0CA80AF0CBFF0C9B0CA85A1C0C9258
:1054A0001B78F3720AF0A2FF48F8070000F041BD34
:1054B0005A1C0C9219780F293FF6CFAE9A1C0C9209
:1054C00058782F4A14AE02F82100D81C0C90987816
:1054D00002EB8102191D50700C91D9789170591D01
:1054E0001B7946F8201DD37030460AF095FF3046F0
:1054F0000AF09DFF09F0EAFA00F01BBD0CA80AF0C3
:105500008BFF204ECCE35A1C0C921A4612F8021B59
:105510001D4E0C925A7814A87270DA1C40F8202D97
:105520009B783170F370C1E3184B1948196805F086
:10553000B7FB00F0FEBC5A1C0C921A4612F8020B84
:1055400014490C920870144A59781170DA1C0C92A4
:105550009A78094B9A7000F0ECBC00BF72110020E1
:10556000C40F0020883000204A190020081A0020AB
:10557000DB110020A62F0020E2110020541900208A
:105580003323002044190020AA1A002004240020FC
:10559000E4E6010860110020EC2F00201824002010
:1055A000742300205A1C14AE46F8202D1B78AF4FF0
:1055B0003046BB700AF03BFF30460AF038FF0C9BC8
:1055C000DFF8CC825A1C0C921B78304688F80830E1
:1055D0000AF022FFA8F8060030460AF01DFFA44B8F
:1055E00058800C9B5A1C0C921B78FB7000F0A1BCDD
:1055F0005A1C14AE46F8202D1A789E4F9B4B30460D
:10560000D7F80080DA710AF007FFFF28A8BFFF2053
:1056100088F8400030463F680AF0FEFEFF28A8BF29
:10562000FF2087F8430000F084BC924E0CA8376836
:105630000AF0F2FEA7F848000CA837680AF0ECFE62
:10564000A7F84A000CA837680AF0E6FEA7F844005D
:105650000CA80AF0ECFE0CA80AF0E9FE0CA80AF06F
:10566000E6FE0C9BD6F800805A1C0C92187813F0BA
:10567000ADFC814913F0B2FD0021074613F098FEFE
:1056800040B94FF08041384613F0B0FE18B14FF0EA
:10569000804700E00027C8F858700CA80AF0BCFE4C
:1056A000A8F85C000CA80AF0C2FE0CA8D6F800808E
:1056B0000AF0B2FE0A277843C8F850000CA83668F2
:1056C0000AF0AAFE7843F06400F033BC0CA80AF09C
:1056D000AEFE0CA80AF0A0FE0CA80AF09DFE0C9BE2
:1056E000644E591C0C9132681B780CA882F8463025
:1056F0000AF09DFE0CA80AF08FFE604B5B495880B3
:105700000C9B5A1C0C921A4612F8020B88710C92D0
:1057100031685B780CA881F842300AF088FE0CA84A
:105720000AF085FE0CA80AF082FE0CA818E05A1CAC
:105730000C921A46524912F8020B14AE0C924870A1
:105740005978504A1170DA1C46F8202D9A784E4B41
:105750003046DA700AF06BFE30460AF068FE3046DA
:105760000AF065FEE5E35A1C14AF47F8202D474EBA
:105770001B783846B3700AF04FFEF08138460AF0C5
:105780004BFE308238460AF047FE708238460AF0F7
:1057900043FE0C9BB0825A1C0C921A4612F8021B54
:1057A000384686F824100C925B7833700AF034FE89
:1057B000F084BEE30CA80AF02FFE0C9B334E5A1C5B
:1057C0000C921A46308412F8021B0CA831710C920C
:1057D0005A783272DA1C0C929A7872711A1D0C92F5
:1057E000DA78F2715A1D1B790C92F3700AF014FEEC
:1057F00070840CA80AF010FEF0830CA80AF00CFECE
:10580000F0820CA80AF008FE30830CA80AF004FE0F
:1058100070830CA80AF000FEB0838AE30CA80AF09B
:10582000FBFD1A4EF0850CA80AF0F6FD30860CA898
:105830000AF0F2FD0C9B70865A1C0C921A4612F864
:10584000021B0CA80C9286F82A105A7886F82B2096
:10585000DA1C0C929A7886F82C201A1D0C92DB78B0
:1058600086F834300AF0D8FDF08662E3601100203B
:1058700008120020042400200000C8426019002003
:10588000EC2F002012120020E211002070210020D5
:105890004A1900200CA80AF0BFFD924EB0800CA857
:1058A0000AF0BAFDF0800CA80AF0B6FD30810CA811
:1058B0000AF0B2FD70810CA80AF0AEFDB0810CA810
:1058C0000AF0AAFDF0810CA80AF0A6FD864EB08071
:1058D0000CA80AF0A1FDF0800CA80AF09DFD308113
:1058E00027E30CA80AF098FD13F070FB7F4913F032
:1058F00075FC0021074613F05BFD30B97C49384642
:1059000013F074FD10B17A4F00E00027794E0CA817
:10591000B7600AF081FD13F059FB744913F05EFC87
:105920000021074613F044FD30B97149384613F0A1
:105930005DFD10B16E4F00E000270CA877610AF002
:105940006BFD13F043FB694913F048FC0021074647
:1059500013F02EFD30B96649384613F047FD10B1FB
:10596000634F00E000270CA8B7610AF055FD13F063
:105970002DFB5E4913F032FC0021074613F018FDA1
:1059800030B95B49384613F031FD10B1584F00E093
:1059900000270CA8F7610AF03FFD13F017FB5349ED
:1059A00013F01CFC0021074613F002FD30B95049EA
:1059B000384613F01BFD10B14D4F00E000270C9A44
:1059C0003762531C0C931378042B03DD0A2BA8BFFA
:1059D0000A2300E0052348494B71931C0C9353782C
:1059E000012BA8BF0123F370A3E2444B1B685907A6
:1059F00000F19F820EF084FE19E0404B1B685A07AD
:105A000000F197823E4B4FF4C8721A8091E23B4BF3
:105A10001B685B0700F18D823A4A136843F0040368
:105A2000136086E2354B1B685F073FF516AC0DF03F
:105A3000D7FB0EF035FC7CE2334A92F8DD20012AD8
:105A400000F2778219465A1C0C9211F8020B2F4A69
:105A50000C91907059781170D91C0C919B785370EF
:105A600067E208F0CBFE284B002283F8DE2083F8A3
:105A7000DF20C3F8E0205CE25A1C0C921978214A1E
:105A800019B1116841F0020102E0116821F0020130
:105A90001F4E116000279A1C0DF1500848F8202D68
:105AA0007770B77037715B784046B3710AF09EFC2F
:105AB000B06040460AF09AFCF06040460AF0ACFC48
:105AC000306140460AF0A8FC642330844020B3844F
:105AD000F3847783B783F78304F0FEFA0BF030FE8C
